:1000000035C14FC14EC14DC14CC14BC19DC4F7C498
:1000100048C147C146C17CC6AEC643C143C141C108
:1000200040C13FC13EC14B6E6F6220323A004B6E01
:100030006F6220313A0052696768743A2000436C5D
:1000400061773A2020004C6566743A2020004D69A3
:1000500064646C653A005072657373206A6F7973DB
:100060007469636B627574746F6E20746F202020E6
:1000700020207374617274006D6541726D000D0A09
:10008000002C20006F6666006F6E0000000000000C
:1000900000005F00000007000700147F147F142495
:1000A0002A7F2A122313086462364955225000051C
:1000B000030000001C2241000041221C0014083EE5
:1000C000081408083E080800503000000808080816
:1000D00008006060000020100804023E5149453EBF
:1000E00000427F400042615149462141454B311851
:1000F00014127F1027454545393C4A494930017162
:100100000905033649494936064949291E0036364C
:100110000000005636000008142241001414141484
:100120001400412214080201510906324979413E66
:100130007E1111117E7F494949363E414141227F5E
:100140004141221C7F494949417F090909013E413A
:1001500049497A7F0808087F00417F4100204041DB
:100160003F017F081422417F404040407F020C0243
:100170007F7F0408107F3E4141413E7F0909090607
:100180003E4151215E7F09192946464949493101BD
:10019000017F01013F4040403F1F2040201F3F4062
:1001A00038403F6314081463070870080761514919
:1001B0004543007F41410002040810200041417F77
:1001C00000040201020440404040400001020400DB
:1001D00020545454787F48444438384444442038A8
:1001E0004444487F3854545418087E0901020C5284
:1001F00052523E7F0804047800447D400020404471
:100200003D007F1028440000417F40007C0418041A
:10021000787C0804047838444444387C1414140866
:10022000081414187C7C080404084854545420040E
:100230003F4440203C4040207C1C2040201C3C404F
:1002400030403C44281028440C5050503C446454E6
:100250004C44000836410000007F00000041360891
:1002600000100808100800000000000011241FBE44
:10027000CFE5D4E0DEBFCDBF10E0A0E6B0E0EAE518
:10028000FFE002C005900D92AE37B107D9F723E029
:10029000AEE7B0E001C01D92A639B207E1F75BD02E
:1002A0005AC6AECE1F920F920FB60F9211248F93A3
:1002B000EF93FF93809180008823A1F080917F00CD
:1002C000882381F0E0917E00E11107C085B1809321
:1002D0009B0181E080937E001FC0F0E085B1E9566C
:1002E000FE4F808380917E008F5F843018F480936E
:1002F0007E0012C010927E0080918000882341F021
:1003000080917F00811104C081E080937F0004C050
:100310001092800010927F0080917E00805A87B9F1
:10032000FF91EF918F910F900FBE0F901F90189536
:10033000CF93DF93EC01862F4AE06CE871E090E008
:10034000E1D561E0CE01B1D261E08CE891E09BD2D1
:10035000DF91CF91089587E690E034D580E687B9A4
:100360008FE286B982B38C6082BBAAD1A3D3ADD30E
:1003700041D4789486B1806C86B981E08093800006
:10038000C5D163E088E790E090D268E180E0A2D236
:1003900061E086E590E089D2A2D2829B02C0839977
:1003A000FCCF08E610E00F2EF8E9AF2EF1E0BF2EEB
:1003B000F02D0F2EFFE7CF2ED12CF02D0F2EF8E6CB
:1003C000EF2EF0E0FF2EF02D0F2EF4EB6F2EF02D20
:1003D0000F2EF7E07F2EF02D0F2EF8E73F2EF02D99
:1003E0000F2EF0E64F2EF0E05F2EF02D0F2EF9E0ED
:1003F0009F2EF02D30C0DF018081E90199919E018F
:10040000891710F48F5F80838C91981710F48150B6
:100410008C9331960E171F0771F7E4E6F0E06081C8
:1004200070E082E048D46091650070E081E043D4E0
:100430006091670070E081E0B0D36091660070E089
:1004400082E0ABD38FE19EE40197F1F700C000009A
:100450009A94992029F0E4E6F0E028E630E0CBCF4A
:1004600081E080938000809180008111FCCF4ED18B
:10047000E5018881F601E81BF1094F011AF4FFE05C
:100480008F0E911C95948794959487949594879456
:1004900095948794E7018881482F50E0282D082CF7
:1004A000000C330B421753071CF08819888301C0D6
:1004B0001882E7016881653B08F0662DF7016083CB
:1004C0008EE490E035DF40E160E08CE4880D2BD2D3
:1004D000E5018981F601E81BF1094F011AF4FFE0FB
:1004E0008F0E911C959487949594879495948794F6
:1004F00095948794E7018981880D8A3520F0853BA2
:1005000018F0862D01C08AE5F701818368E080E05C
:10051000E1D1E701698186E490E00ADF672D68197F
:1005200040E184E4EFD1F50183819601281B310974
:1005300049011AF43FE0830E911C95948794959499
:1005400087949594879495948794E7018B81482F9D
:1005500050E0E82DFF27E1950CF4F0954E175F076A
:100560001CF0880D8B8302C0E7011B82F701838199
:10057000893708F0832DE7018B8360E180E0AAD101
:100580006B818EE390E0D4DE40E161E18CE4880D84
:10059000CAD1F50182819601281B310949011AF45B
:1005A0003FE0830E911C959487949594879495943D
:1005B000879495948794E7018A81482F50E0E82D2D
:1005C000FF27E1950CF4F0954E175F071CF0880D9E
:1005D0008A8302C0E7011A82F7018281853B08F015
:1005E000862DE7018A8368E180E074D16A8186E321
:1005F00090E09EDE68E1681940E184E483D160E226
:1006000080E068D161E08EE290E04FD1829911C024
:1006100088819981AA81BB81809360009093610059
:10062000A0936200B093630061E088E890E03DD160
:1006300004C061E084E890E038D168E280E04AD10B
:1006400061E086E290E031D1839912C0F2018081AD
:100650009181A281B3818093680090936900A093F7
:100660006A00B0936B0061E088E890E01ED104C09E
:1006700061E084E890E019D132D1812C912CF40111
:10068000E856FE4F80814AE06CE871E090E03AD491
:100690008CE891E0C2D381E890E0CDD3FFEF8F1AD0
:1006A0009F0A24E08216910451F78EE790E0C3D3AD
:1006B0009DCEC29894988FB9779BFECFC29A089529
:1006C000BA9ABB9ABD9A8C9A8F9A8DB181658DB971
:1006D000979AC29A8FE99FE00197F1F700C0000056
:1006E00097988FE99FE00197F1F700C00000979A73
:1006F000C29881E2DEDF83E1DCDF86E0DADF82ECD4
:10070000D8DF80E2D6DF8CE0D4DF08951092950325
:1007100010929C0188EF91E0EDE9F1E0DF019C018E
:100720001D9221503040E1F70895262F26952695F9
:10073000269590E034E5239F800D911D112467706C
:1007400021E030E002C0220F331F6A95E2F7442314
:1007500039F0FC01E356FE4F8081282B2083089559
:10076000FC01E356FE4F20958081282320830895C5
:100770007F928F929F92AF92BF92CF92DF92EF9231
:10078000FF920F931F93CF93DF93262F30E0490101
:10079000880C991C880C991C820E931E181419043D
:1007A0000CF048C0762E7901EE0CFF1CEE0CFF1CFD
:1007B000EE0CFF1CE21AF30AD0E0A82EB12CC50102
:1007C00080975C01AA0CBB1CAA0CBB1CA80EB91E0E
:1007D000CC24C394D12C21C0F80144918C2F672DD7
:1007E0003BD3960102C0220F331F8A95E2F74223C2
:1007F00060919C016C0F809195038D0F96DFCF5F08
:100800008C2F90E08E159F053CF301C0C0E0DF5FA8
:100810008D2F90E0881599057CF41E141F04B4F701
:100820008D2F672D19D38501080F111D05571F4FF7
:10083000C0E0D2CFC0E0D0E0809195038F5FD80FA9
:10084000D43518F4D093950308C010929503809185
:100850009C018F5FC80FC0939C0180919C018033E5
:1008600020F01092950310929C01DF91CF911F917F
:100870000F91FF90EF90DF90CF90BF90AF909F903F
:100880008F907F9008951F93CF93DF93EC01888121
:10089000882339F0162F2196612F6ADF8991811103
:1008A000FBCFDF91CF911F9108951F93CF93DF93DB
:1008B000EC012196FC018491882341F0162F612FD1
:1008C00057DFFE01849121968111F9CFDF91CF91FD
:1008D0001F9108958093950360939C01089580E88B
:1008E000E8DE80E4E6DEEDE9F1E025E933E0819140
:1008F000C298949A8FB9779BFECFC29AE217F307FA
:10090000B1F708951F93CF93DF93162FC42FD1E033
:10091000D80F41E0612F09DFC1508D2FC1F7DF9162
:10092000CF911F9108951F93CF93DF93182FC42F5A
:10093000D1E0D60F41E0812FF8DEC1506D2FC1F715
:10094000DF91CF911F9108951F920F920FB60F92D2
:1009500011242F933F938F939F93EF93FF93809155
:10096000840022B390E0FC01EE0FFF1F8E0F9F1F4B
:10097000FC01EB58FF4F80818095822382BB8091E0
:100980008400823021F0809184008F5F01C080E07C
:10099000809384008091840022B390E0FC01EE0FEC
:1009A000FF1F8E0F9F1FFC01EB58FF4F8081822B92
:1009B00082BB8091840090E0FC01EE0FFF1F8E0F40
:1009C0009F1FFC01EB58FF4F81819281909386001D
:1009D0008093850020918500309186008AB59BB573
:1009E000820F931F9BBD8ABDFF91EF919F918F91C5
:1009F0003F912F910F900FBE0F901F9018951F924F
:100A00000F920FB60F9211242F933F938F939F93C2
:100A1000EF93FF938091810028B390E0FC01EE0FEB
:100A2000FF1F8E0F9F1FFC01E459FF4F80818095AF
:100A3000822388BB80918100823021F080918100E7
:100A40008F5F01C080E0809381008091810028B396
:100A500090E0FC01EE0FFF1F8E0F9F1FFC01E45979
:100A6000FF4F8081822B88BB8091810090E0FC0148
:100A7000EE0FFF1F8E0F9F1FFC01E459FF4F818176
:100A80009281909383008093820020918200309124
:100A9000830088B599B5820F931F99BD88BDFF91DA
:100AA000EF919F918F913F912F910F900FBE0F90DB
:100AB0001F90189588B7886188BF89B7877E89BFDE
:100AC0001DBC1CBC82E08EBD0895109284008091F4
:100AD0008400833040F58091840021B390E0FC01D4
:100AE000EE0FFF1F8E0F9F1FFC01EB58FF4F808101
:100AF000822B81BB8091840022B390E0FC01EE0F39
:100B0000FF1F8E0F9F1FFC01EB58FF4F80818095C8
:100B1000822382BB809184008F5F809384008091C8
:100B200084008330C0F2109284008091840022B34C
:100B300090E0FC01EE0FFF1F8E0F9F1FFC01EB5892
:100B4000FF4F81E090E0008002C0880F991F0A9457
:100B5000E2F7822B82BB8091840090E0FC01EE0FD3
:100B6000FF1F8E0F9F1FFC01EB58FF4F8181928169
:100B700090938600809385002CB53DB580918500CB
:100B800090918600820F931F9BBD8ABD88B78061BC
:100B900088BF89B7806189BF0895CF93DF936032A2
:100BA00092E07907B8F490E0EC01CC0FDD1F8C0FD8
:100BB0009D1FEC01CB58DF4F9B01A0E8BEE074D134
:100BC00024EB30E040E050E053D1205C3B4F3A83CF
:100BD00029830DC090E0FC01EE0FFF1F8E0F9F1FB9
:100BE000FC01EB58FF4F660F771F72836183DF9123
:100BF000CF9108951092810080918100833040F55B
:100C00008091810027B390E0FC01EE0FFF1F8E0F53
:100C10009F1FFC01E459FF4F8081822B87BB80918D
:100C2000810028B390E0FC01EE0FFF1F8E0F9F1F85
:100C3000FC01E459FF4F80818095822388BB80911D
:100C400081008F5F80938100809181008330C0F2AA
:100C5000109281008091810028B390E0FC01EE0F9A
:100C6000FF1F8E0F9F1FFC01E459FF4F8081822BD5
:100C700088BB8091810090E0FC01EE0FFF1F8E0F7A
:100C80009F1FFC01E459FF4F818192819093830063
:100C9000809382002CB53DB58091820090918300B5
:100CA000820F931F99BD88BD88B7886088BF89B7B8
:100CB000886089BF0895CF93DF93603292E079070F
:100CC000B8F490E0EC01CC0FDD1F8C0F9D1FEC0100
:100CD000C459DF4F9B01A0E8BEE0E6D024EB30E032
:100CE00040E050E0C5D0205C3B4F3A8329830DC0E3
:100CF00090E0FC01EE0FFF1F8E0F9F1FFC01E459D7
:100D0000FF4F660F771F72836183DF91CF91089544
:100D10001F920F920FB60F9211242F933F934F9370
:100D20005F938F939F93EF93FF932BB13CB1287107
:100D30008091890090E001968F77992740918800F3
:100D400050E08417950739F080938900FC01E4573F
:100D5000FF4F308301C022E020938700FF91EF9185
:100D60009F918F915F914F913F912F910F900FBE67
:100D70000F901F9018951F920F920FB60F9211248B
:100D80008F939F93EF93FF9390918B0080918A00B4
:100D9000981771F080918A0090E001968F779927DB
:100DA00080938A00FC01E45FFE4F80818CB901C012
:100DB0005598FF91EF919F918F910F900FBE0F90DB
:100DC0001F901895F89410928B0010928A00109240
:100DD000890010928800789499231CF422E02BB9A2
:100DE0009F7790BD89B988E98AB986E880BD089562
:100DF00040918B0050E04F5F5F4F4F775527209118
:100E00008A0030E042175307D1F3FA01E45FFE4F46
:100E1000808340938B00559A0895CF93DF93EC0124
:100E20008881882329F02196E3DF89918111FCCF05
:100E3000DF91CF910895CF93DF93EC012196FC01D0
:100E40008491882331F0D4DFFE01849121968111B1
:100E5000FACFDF91CF910895991B79E004C0991FD3
:100E6000961708F0961B881F7A95C9F78095089504
:100E7000052E97FB16F400940FD057FD05D020D017
:100E800007FC02D046F408C0509540953095219556
:100E90003F4F4F4F5F4F08959095809570956195A6
:100EA0007F4F8F4F9F4F0895A29FB001B39FC00106
:100EB000A39F01D0B29F700D811D1124911D089533
:100EC000A1E21A2EAA1BBB1BFD010DC0AA1FBB1F4E
:100ED000EE1FFF1FA217B307E407F50720F0A21BC0
:100EE000B30BE40BF50B661F771F881F991F1A942D
:100EF00069F760957095809590959B01AC01BD0157
:100F0000CF010895BB27FB015527AA27880F991FFA
:100F1000AA1FA41710F0A41B83955051B9F7A05D28
:100F2000AA3308F0A95DA193009779F7B111B193A5
:100F30001192CB0100C0DC01FC01672F7191772376
:100F4000E1F7329704C07C916D9370836291AE1784
:0A0F5000BF07C8F30895F894FFCF1F
:100F5A005A5A5A5A5A5A5A5A5A5A5A5A00409C0172
:0E0F6A00B80B02B80B00409C20B80B40B80B2F
:00000001FF
