:1000000035C14FC14EC14DC14CC14BC193C4EDC4AC
:1000100048C147C146C172C6A4C643C143C141C11C
:1000200040C13FC13EC10D0A0066616C736500743A
:100030007275650066616C73652C00747275652C51
:10004000002C200052696768743A2000436C617785
:100050003A2020004C6566743A2020004D696464A3
:100060006C653A00646F6E650D0A006D6541726DD6
:1000700000496E697469616C697A6500696E6974BA
:100080000D0A0068656C6C6F0D0A0000000000002E
:1000900000005F00000007000700147F147F142495
:1000A0002A7F2A122313086462364955225000051C
:1000B000030000001C2241000041221C0014083EE5
:1000C000081408083E080800503000000808080816
:1000D00008006060000020100804023E5149453EBF
:1000E00000427F400042615149462141454B311851
:1000F00014127F1027454545393C4A494930017162
:100100000905033649494936064949291E0036364C
:100110000000005636000008142241001414141484
:100120001400412214080201510906324979413E66
:100130007E1111117E7F494949363E414141227F5E
:100140004141221C7F494949417F090909013E413A
:1001500049497A7F0808087F00417F4100204041DB
:100160003F017F081422417F404040407F020C0243
:100170007F7F0408107F3E4141413E7F0909090607
:100180003E4151215E7F09192946464949493101BD
:10019000017F01013F4040403F1F2040201F3F4062
:1001A00038403F6314081463070870080761514919
:1001B0004543007F41410002040810200041417F77
:1001C00000040201020440404040400001020400DB
:1001D00020545454787F48444438384444442038A8
:1001E0004444487F3854545418087E0901020C5284
:1001F00052523E7F0804047800447D400020404471
:100200003D007F1028440000417F40007C0418041A
:10021000787C0804047838444444387C1414140866
:10022000081414187C7C080404084854545420040E
:100230003F4440203C4040207C1C2040201C3C404F
:1002400030403C44281028440C5050503C446454E6
:100250004C44000836410000007F00000041360891
:1002600000100808100800000000000011241FBE44
:10027000CFE5D4E0DEBFCDBF10E0A0E6B0E0E6E41D
:10028000FFE002C005900D92AA37B107D9F723E02D
:10029000AAE7B0E001C01D92A638B207E1F748D046
:1002A00050C6AECE1F920F920FB60F9211248F93AD
:1002B000EF93FF9380917C008823A1F080917B00D5
:1002C000882381F0E0917A00E11107C085B1809325
:1002D0008B0181E080937A001FC0F0E085B1E9577F
:1002E000FE4F808380917A008F5F843018F4809372
:1002F0007A0012C010927A0080917C00882341F02D
:1003000080917B00811104C081E080937B0004C058
:1003100010927C0010927B0080917A00805A87B9FD
:10032000FF91EF918F910F900FBE0F901F90189536
:10033000CF93DF93CDB7DEB72C970FB6F894DEBF1F
:100340000FBECDBF87E690E033D583E890E069D556
:100350009AD18CE790E065D5BCD161E081E790E06F
:100360009AD26AE080E0ACD263E08BE690E093D270
:10037000ACD284E690E055D593D39DD331D480E6BA
:1003800087B98FE286B982B38C6082BB789486B1DC
:10039000806C86B92FEF31EF8BE2215030408040E6
:1003A000E1F700C0000011E00F2EF8E8AF2EF1E0F9
:1003B000BF2EF02D0F2EFFE7CF2ED12CF02D04EB0A
:1003C000712C612C512C0F2EF7E08F2EF02D0F2E5B
:1003D000F4E64F2EF02D312C0F2EFBE19F2EF02D49
:1003E0009FEFE1EEF4E09150E040F040E1F700C013
:1003F000000010937C0080917C008111FCCF69D1BA
:10040000F50180819601281B310979011AF43FE03A
:10041000E30EF11CF594E794F594E794F594E794D2
:10042000F594E79460916600709167006E0D711D00
:10043000E7FC7A95653B710514F0602F772D7723E3
:1004400014F4662D752D709367006093660082E04A
:1004500028D44AE0BE016F5F7F4F80916600909183
:10046000670046D560E080E02BD2612F8CE590E0FC
:1004700012D2612FCE010196FCD140E160E084E40C
:100480008E0D47D2F50181819601281B3109790132
:100490001AF43FE0E30EF11CF594E794F594E79429
:1004A000F594E794F594E794609164007091650089
:1004B0006E0D711DE7FC7A956A35710534F0653B68
:1004C00071052CF0602F772D02C06AE570E0709303
:1004D000650060936400812FE4D34AE0BE016F5F42
:1004E0007F4F809164009091650002D56AE080E0C2
:1004F000E7D1612F84E590E0CED1612FCE01019646
:10050000B8D1682D6E1940E18CE3F2D1F5018381F9
:100510009601281B310979011AF43FE0E30EF11C22
:10052000F594E794F594E794F594E794F594E794BB
:1005300060916000709161006E0D711DE7FC7A950D
:100540006233710534F0653671052CF0642D732D1E
:1005500002C062E370E07093610060936000812FDD
:1005600012D34AE0BE016F5F7F4F8091600090918F
:100570006100BED464E180E0A3D1612F8CE490E0FF
:100580008AD1612FCE01019674D140E164E184E407
:100590008E0DBFD1F50182819601281B31097901A9
:1005A0001AF43FE0E30EF11CF594E794F594E79418
:1005B000F594E794F594E79460916200709163007C
:1005C0006E0D711DE7FC7A95653B710514F0602F87
:1005D000772D772314F4662D752D70936300609347
:1005E000620082E0D0D24AE0BE016F5F7F4F80910F
:1005F0006200909163007CD46EE180E061D1612F54
:1006000084E490E048D1612FCE01019632D1692D6A
:100610006E1940E18CE36CD158D1E12CF12CF7013B
:10062000E857FE4F80814AE0BE016F5F7F4F90E048
:100630005FD4CE010196E7D381E490E0F2D38FEF4F
:10064000E81AF80A94E0E916F10449F7829904C01F
:100650008BE390E0E6D303C084E390E0E2D3839998
:1006600004C08FE290E0DDD303C089E290E0D9D3EB
:1006700086E290E0D6D3B4CEC29894988FB9779B97
:10068000FECFC29A0895BA9ABB9ABD9A8C9A8F9A55
:100690008DB181658DB9979AC29A8FE99FE00197D4
:1006A000F1F700C0000097988FE99FE00197F1F7FC
:1006B00000C00000979AC29881E2DEDF83E1DCDFB0
:1006C00086E0DADF82ECD8DF80E2D6DF8CE0D4DFB0
:1006D00008951092850310928C0188EF91E0EDE867
:1006E000F1E0DF019C011D9221503040E1F70895B7
:1006F000262F26952695269590E034E5239F800D9C
:10070000911D1124442379F0FC01E357FE4F6770DB
:1007100081E090E002C0880F991F6A95E2F790810E
:10072000892B80830895FC01E357FE4F677081E0B9
:1007300090E002C0880F991F6A95E2F7809590813A
:100740008923808308959F92AF92BF92CF92DF92C8
:10075000EF92FF920F931F93CF93DF93962E262F46
:1007600030E06901CC0CDD1CCC0CDD1CC20ED31EAC
:100770001C141D040CF04DC08901000F111F000F47
:10078000111F000F111F021B130BA12CE82EF12CBF
:10079000C70180977C01EE0CFF1CEE0CFF1CE80EDD
:1007A000F91E2AC0FE01249130E08B2D692D4AD319
:1007B00002C0359527958A95E2F720FF09C0609120
:1007C0008C016B0D8091850341E08A0D91DF08C09B
:1007D00060918C016B0D8091850340E08A0D88DF6C
:1007E000B3948B2D90E080179107E4F2A3948A2DA7
:1007F00090E08C159D056CF410161106BCF78A2D3F
:10080000692D20D3E701C80FD11DC557DF4FB12C8B
:10081000C9CF8091850391E0980F892D880F880FAB
:10082000890D890F843518F4809385030EC01092CA
:10083000850380918C0191E0980F892D880F880F96
:10084000880F8919890F80938C0180918C018033E6
:1008500020F01092850310928C01DF91CF911F91AF
:100860000F91FF90EF90DF90CF90BF90AF909F904F
:1008700008951F93CF93DF93EC018881882339F08B
:10088000162F2196612F5FDF89918111FBCFDF91B8
:10089000CF911F9108951F93CF93DF93EC01219681
:1008A000FC018491882341F0162F612F4CDFFE015B
:1008B000849121968111F9CFDF91CF911F910895F5
:1008C0008093850360938C01089580E8D5DE80E4F1
:1008D000D3DEEDE8F1E025E833E08191C298949A07
:1008E0008FB9779BFECFC29AE217F307B1F708954D
:1008F0001F93CF93DF93162FC42FD1E0D80F41E081
:10090000612FF6DEC1508D2FC1F7DF91CF911F917E
:1009100008951F93CF93DF93182FC42FD1E0D60FE4
:1009200041E0812FE5DEC1506D2FC1F7DF91CF91FE
:100930001F9108951F920F920FB60F9211242F93BB
:100940003F938F939F93EF93FF938091800022B307
:1009500090E0FC01EE0FFF1F8E0F9F1FFC01EF5870
:10096000FF4F80818095822382BB809180008230FE
:1009700021F0809180008F5F01C080E08093800033
:100980008091800022B390E0FC01EE0FFF1F8E0FDC
:100990009F1FFC01EF58FF4F8081822B82BB80910B
:1009A000800090E0FC01EE0FFF1F8E0F9F1FFC01E7
:1009B000EF58FF4F81819281909382008093810054
:1009C00020918100309182008AB59BB5820F931FE0
:1009D0009BBD8ABDFF91EF919F918F913F912F9188
:1009E0000F900FBE0F901F9018951F920F920FB689
:1009F0000F9211242F933F938F939F93EF93FF9325
:100A000080917D0028B390E0FC01EE0FFF1F8E0F58
:100A10009F1FFC01E859FF4F80818095822388BB8E
:100A200080917D00823021F080917D008F5F01C038
:100A300080E080937D0080917D0028B390E0FC01F0
:100A4000EE0FFF1F8E0F9F1FFC01E859FF4F8081A3
:100A5000822B88BB80917D0090E0FC01EE0FFF1F90
:100A60008E0F9F1FFC01E859FF4F81819281909367
:100A70007F0080937E0020917E0030917F0088B5BA
:100A800099B5820F931F99BD88BDFF91EF919F91FA
:100A90008F913F912F910F900FBE0F901F9018953F
:100AA00088B7886188BF89B7877E89BF1DBC1CBC99
:100AB00082E08EBD08951092800080918000833086
:100AC00040F58091800021B390E0FC01EE0FFF1F04
:100AD0008E0F9F1FFC01EF58FF4F8081822B81BB3F
:100AE0008091800022B390E0FC01EE0FFF1F8E0F7B
:100AF0009F1FFC01EF58FF4F80818095822382BBAE
:100B0000809180008F5F809380008091800083308F
:100B1000C0F2109280008091800022B390E0FC012E
:100B2000EE0FFF1F8E0F9F1FFC01EF58FF4F81E05C
:100B300090E0008002C0880F991F0A94E2F7822B90
:100B400082BB8091800090E0FC01EE0FFF1F8E0FB2
:100B50009F1FFC01EF58FF4F81819281909382008B
:100B6000809381002CB53DB58091810090918200E9
:100B7000820F931F9BBD8ABD88B7806188BF89B7EC
:100B8000806189BF0895CF93DF93603292E0790747
:100B9000B8F490E0EC01CC0FDD1F8C0F9D1FEC0131
:100BA000CF58DF4F9B01A0E8BEE074D124EB30E0CA
:100BB00040E050E053D1205C3B4F3A8329830DC085
:100BC00090E0FC01EE0FFF1F8E0F9F1FFC01EF58FE
:100BD000FF4F660F771F72836183DF91CF91089576
:100BE00010927D0080917D00833040F580917D00E2
:100BF00027B390E0FC01EE0FFF1F8E0F9F1FFC013B
:100C0000E859FF4F8081822B87BB80917D0028B3FC
:100C100090E0FC01EE0FFF1F8E0F9F1FFC01E859B3
:100C2000FF4F80818095822388BB80917D008F5FFC
:100C300080937D0080917D008330C0F210927D0012
:100C400080917D0028B390E0FC01EE0FFF1F8E0F16
:100C50009F1FFC01E859FF4F8081822B88BB809148
:100C60007D0090E0FC01EE0FFF1F8E0F9F1FFC0127
:100C7000E859FF4F8181928190937F0080937E009D
:100C80002CB53DB580917E0090917F00820F931F1F
:100C900099BD88BD88B7886088BF89B7886089BFDB
:100CA0000895CF93DF93603292E07907B8F490E033
:100CB000EC01CC0FDD1F8C0F9D1FEC01C859DF4FDD
:100CC0009B01A0E8BEE0E6D024EB30E040E050E03D
:100CD000C5D0205C3B4F3A8329830DC090E0FC01D6
:100CE000EE0FFF1F8E0F9F1FFC01E859FF4F660F8D
:100CF000771F72836183DF91CF9108951F920F92C6
:100D00000FB60F9211242F933F934F935F938F93BE
:100D10009F93EF93FF932BB13CB128718091850095
:100D200090E001968F7799274091840050E08417D6
:100D3000950739F080938500FC01E857FF4F308319
:100D400001C022E020938300FF91EF919F918F914A
:100D50005F914F913F912F910F900FBE0F901F9079
:100D600018951F920F920FB60F9211248F939F9395
:100D7000EF93FF939091870080918600981771F010
:100D80008091860090E001968F7799278093860066
:100D9000FC01E85FFE4F80818CB901C05598FF913E
:100DA000EF919F918F910F900FBE0F901F9018950C
:100DB000F89410928700109286001092850010928D
:100DC0008400789499231CF422E02BB99F7790BD7E
:100DD00089B988E98AB986E880BD0895409187007D
:100DE00050E04F5F5F4F4F7755272091860030E0EE
:100DF00042175307D1F3FA01E85FFE4F8083409317
:100E00008700559A0895CF93DF93EC01888188235A
:100E100029F02196E3DF89918111FCCFDF91CF91F9
:100E20000895CF93DF93EC012196FC0184918823F0
:100E300031F0D4DFFE01849121968111FACFDF9148
:100E4000CF910895991B79E004C0991F961708F077
:100E5000961B881F7A95C9F780950895052E97FBF4
:100E600016F400940FD057FD05D020D007FC02D017
:100E700046F408C050954095309521953F4F4F4F0F
:100E80005F4F089590958095709561957F4F8F4F36
:100E90009F4F0895A29FB001B39FC001A39F01D0AF
:100EA000B29F700D811D1124911D0895A1E21A2E8B
:100EB000AA1BBB1BFD010DC0AA1FBB1FEE1FFF1FFE
:100EC000A217B307E407F50720F0A21BB30BE40B4E
:100ED000F50B661F771F881F991F1A9469F7609595
:100EE0007095809590959B01AC01BD01CF0108954F
:100EF000BB27FB015527AA27880F991FAA1FA417F4
:100F000010F0A41B83955051B9F7A05DAA3308F0E7
:100F1000A95DA193009779F7B111B1931192CB011B
:100F200000C0DC01FC01672F71917723E1F7329754
:100F300004C07C916D9370836291AE17BF07C8F3B4
:060F40000895F894FFCFB4
:100F46005A005A005A005A0000409C01B80B02B8D9
:0A0F56000B00409C20B80B40B80BC4
:00000001FF
